:020000040800F2
:10000000904D00209D010008B53E0008C130000859
:10001000B13E0008A9050008255B000800000000AB
:10002000000000000000000000000000814A0008FD
:10003000C30D000800000000013F0008754D0008D6
:10004000B7010008B7010008B7010008B7010008B0
:10005000B7010008B7010008B7010008B7010008A0
:10006000B7010008B7010008C50D0008B701000876
:10007000710D0008B7010008B7010008B7010008BA
:10008000B7010008B7010008B7010008B70500086C
:10009000AB050008B7010008B7010008CB0D000848
:1000A000B7010008B7010008B7010008B701000850
:1000B000654E0008B7010008B7010008B701000845
:1000C000B7010008B7010008B7010008134900088C
:1000D000B70100089B540008B7010008B554000898
:1000E000B7010008B7010008B7010008B701000810
:1000F000B7010008B7010008B7010008B701000800
:10010000B7010008B7010008B7010008B7010008EF
:10011000B7010008B7010008B7010008B7010008DF
:10012000B7010008B70100087D0D0008930D000815
:10013000B7010008B7010008B7010008B7010008BF
:10014000B7010008B7010008B7010008B7010008AF
:100150009F0D0008AB0D0008B70D0008CF54000834
:10016000B7010008B7010008B7010008B70100088F
:10017000B7010008B7010008B7010008000000003F
:10018000B7010008B7010008DFF80CD000F094F8C0
:1001900000480047356A0008904D00200648804717
:1001A00006480047FEE7FEE7FEE7FEE7FEE7FEE75C
:1001B000FEE7FEE7FEE7FEE7534E00088901000870
:1001C0002DE9F05F0546002092469B46884606468C
:1001D000814640241BE0284641464746224600F01F
:1001E0005AF853465A46C01A914110D31146184640
:1001F000224600F041F82D1A67EB01084F462246CF
:100200000120002100F038F817EB00094E41201EB4
:10021000A4F10104DFDC484631462A464346BDE8E6
:10022000F09F40EA01039B0703D009E008C9121FB1
:1002300008C0042AFAD203E011F8013B00F8013BA0
:10024000521EF9D27047D2B201E000F8012B491ECC
:10025000FBD270470022F6E710B513460A46044663
:100260001946FFF7F0FF204610BD421C10F8011B95
:100270000029FBD1801A7047202A04DB203A00FABB
:1002800002F1002070479140C2F1200320FA03F3ED
:10029000194390407047202A04DB203A21FA02F0EB
:1002A0000021704721FA02F3D040C2F120029140B0
:1002B0000843194670470000064C074D06E0E06809
:1002C00040F0010394E8070098471034AC42F6D39D
:1002D000FFF75EFFA0810008C0810008B0F9003080
:1002E00040F2040CC2F2000C00EE103A9CED001A31
:1002F000B8EEC00A21EE000A81ED000AB0F9023022
:100300009CED001A00EE103AB8EEC00A21EE000A89
:1003100081ED010AB0F9043000EE103AB8EEC00ADF
:1003200021EE000A81ED020AC3798179007A1B026D
:1003300043EA0040084400EE100A9FED041AB8EEAC
:10034000400A20EE010A82ED000A704700401C427C
:10035000B0F9002000EE102A40F20802C2F20002BA
:1003600092ED001AB8EEC00A21EE000A81ED000AF3
:10037000B0F9023092ED001A00EE103AB8EEC00A61
:1003800021EE000A81ED010AB0F9040000EE100A26
:10039000B8EEC00A21EE000A81ED020A704710B5DE
:1003A00005F0A8FC08B1802402E005F0BDFB04467E
:1003B00005F06EFF002814BF402005F0A7FE204383
:1003C00010BD2DE9F04383B00025C4F2020590462C
:1003D0000F4606464FF00009284610210022CDE9BD
:1003E000009901F069FB40F2A470C2F20000922172
:1003F00004F0CEFA6C4612202146062200F09CF84A
:1004000028461021012201F057FBBDF90000BDF97B
:10041000021000EE100A40F20400C2F2000090ED5B
:10042000001AB8EEC00ABDF9042021EE000A87EDDB
:10043000000A00EE101A90ED001A02EE102AB8EE33
:10044000C00AB8EEC22A21EE000A21EE021A87ED98
:10045000010A87ED021A05F580673846012100225E
:1004600001F02AFB00202146082200F065F83846FA
:100470000121012201F020FB9DF800000F2825D169
:10048000BDF90200BDF9041000EE100A40F20800A8
:10049000C2F2000090ED001AB8EEC00ABDF90620C5
:1004A00021EE000A86ED000A00EE101A90ED001A07
:1004B00002EE102AB8EEC00AB8EEC22A21EE000AF7
:1004C00021EE021A86ED010A86ED021A2846102155
:1004D000002201F0F1FA40F2A470C2F20000A22161
:1004E00004F056FA69462220022200F025F8284638
:1004F0001021012201F0E0FA9DF800009DF80110A2
:10050000C00040EA51104FF60001CFF6FF71B9EB81
:10051000902F18BF084300EE100AB8EEC00AB4EEE0
:10052000001A20EE010AB3EE071A30EE010A88ED38
:10053000000A03B0BDE8F08370B50D4640F08001BD
:1005400040F2A470C2F20000144604F021FA64B133
:1005500040F2A476C2F200063046552104F018FAA3
:10056000013C210605F8010BF6D170BD02784078F8
:10057000D20042EA50104FF600020023CFF6FF727D
:10058000B3EB902F18BF104300EE100AB8EEC00A6C
:10059000B4EE001A20EE010AB3EE071A30EE010A9B
:1005A00081ED000A70470000FEE740F21850C2F2E9
:1005B000000000F01BBD40F21850C2F2000000F035
:1005C00015BD70B540F20C06C2F2000606F130020D
:1005D0000C46054605F0FCFF06F148022846214678
:1005E00005F0F6FF28462146324605F0F1FF06F1F8
:1005F000180228462146BDE8704005F0E9BF10B555
:100600008AB0012000216C460890CDE906100991BE
:1006100020461821FFF71EFE40F21850C2F20000DB
:10062000214600F0EDFB08B100F0D2FB40F2185477
:10063000C2F20004204600F0B1FE2046022100F084
:10064000CCFB0AB010BD000082B041F2883006F049
:100650000EFA00209FED7D8A019040F2A830DFED78
:100660007C1AC2F20000B2EE001AB0EE480AF0EEB8
:10067000480AB0EE482AF0EE482A03F021FC9FED2C
:10068000759A40F22420DFED740AC2F20000B0EE49
:10069000480AB0EE491AF0EE481AB0EE482AF0EED9
:1006A000482A03F00DFC40F26820DFED6C0AC2F22C
:1006B0000000B0EE480AB0EE491AF0EE481AB0EE6B
:1006C000482AF0EE482A03F0FBFB9FED65AA40F2B2
:1006D000EC30C2F20000B0EE480AF0EE4A0AB0EE8A
:1006E000491AF0EE481AB0EE482AF0EE482A03F014
:1006F000E7FB40F26840DFEDF10A9FEDF12AC2F21C
:100700000000F2EE0C1AF1EE002AB0EE480AB0EE4C
:100710004A1A03F0D5FB9FEDEBAA40F2CC009FED07
:10072000EA2ADFEDEA2AC2F20000F3EE001AB0EE88
:10073000480AF0EE490AB0EE4A1A03F0C1FB9FEDF9
:10074000E49A40F28C10C2F20000B0EE480AF0EEDB
:10075000480AB0EE4A1AF0EE491AB0EE482AF0EE16
:10076000482A03F0ADFB40F2E010C2F20000B0EE08
:10077000480AF0EE480AB0EE4A1AF0EE491AB0EE16
:10078000482AF0EE482A03F09BFB40F2C820C2F250
:100790000000B0EE480AF0EE480AB0EE4A1AF0EE59
:1007A000491AB0EE482AF0EE482A03F089FB40F2DD
:1007B0001C30C2F20000B0EE480AF0EE480AB0EE7B
:1007C0004A1AF0EE491AB0EE482AF0EE482A03F031
:1007D00077FB40F21010DFEDBF0AC2F20000B7EE67
:1007E000000A02F096FD40F20C0B9FEDBB9A9FEDC4
:1007F000BBAA40F2C00740F2AC249FEDB9DA9FEDEE
:10080000B9EA9FEDB9FADFEDB98A40F67428DFED59
:10081000B8AADFEDB8BA40F2641940F2045A40F2C7
:100820000C36C2F2000BB5EE00BAC2F20007C2F2FB
:100830000004B6EE00CAC2F20008F3EE0E9AC2F24D
:100840000009C2F2000AC2F200060BE0000000003C
:100850006F12833A00007A440000164400004844B6
:100860000000FA4306F018F90190BBF93A0000EED7
:10087000100A40F28010C2F2000090ED021AB8EEA9
:10088000C00A21EE092A20EE0A3A33EE022A80ED50
:10089000000A80ED011A80ED022ABBF9520000EE39
:1008A000100A40F2D410C2F2000090ED021AB8EE25
:1008B000C00A21EE093A20EE0A4A34EE033A80EDEE
:1008C000000A80ED011A80ED023ABBF9220033EEF6
:1008D000420A01EE100A40F21030C2F2000090ED20
:1008E000022AB8EEC11A22EE093A21EE0A4A34EE83
:1008F000033A80ED001A80ED012A80ED023ABBF93F
:100900000A0030EE430A01EE100A40F2BC20C2F2A7
:10091000000090ED022AB8EEC11A22EE093A21EE4B
:100920000A4A34EE033A80ED001A80ED012A80ED88
:10093000023A30EE030AD7ED01CAD4ED01DA40F6EF
:10094000682020EE0B0AC2F2000080ED000A3CEEA7
:10095000AD0A20EE0C0A3DEEAD1A31EE401AF4EE6F
:100960006DCAF1EE10FAB8BFB0EE410A94ED001A6C
:1009700097ED002A31EE013A33EE423AB8BFB0EEBD
:10098000432A32EE411A30EE6D0ABDEEC00ABDEECA
:10099000C11AB8EEC00AF8EEC10A07F0D9F994ED11
:1009A000001A97ED002A94ED013A31EE421A97EDC4
:1009B000012A21EE011A33EE422A22EE022A31EEFA
:1009C000022AB1EEC21A20EE0D0A87ED020AB4EE39
:1009D000411AF1EE10FA80F1BA81F4EE6DCAB0EE70
:1009E000C12AF1EE10FAB4EE4E2AB1EE410AB8BFB8
:1009F000B0EE401AF1EE10FA05DA0020CCF2B42085
:100A0000B0EE481AB86040F26820C2F20000B0EEC2
:100A1000410A05F01BFD40F66820C2F2000090ED8F
:100A2000001A40F67020C2F2000080ED000A40F289
:100A3000A83031EE400AC2F2000005F007FD94ED47
:100A4000022A97ED023AB0EE401A33EE420AB4EEB3
:100A50004F0A40F66C20F1EE10FAC2F2000080ED71
:100A6000001A07DD30EE280AB5EE400AF1EE10FA62
:100A700017DB48E0B4EE6B0AB0EE402A30EE2A1ADB
:100A8000F1EE10FAB8BFB0EE412AB5EE402AF1EE11
:100A900010FA31DAB4EE6B0AF1EE10FAB8BFB0EE2C
:100AA000410AB1EE401AB1EEC10AB4EE400AF1EECD
:100AB00010FA80F15381B1EE401A2CE00000C842D8
:100AC0009A99193F00401C468FC2753D0000204393
:100AD0003333534100002042D0CCCC3D6666663FA4
:100AE000E12E654200004842000034430000B4C3D8
:100AF0000000B443000034C3B4EE6B0AF1EE10FA08
:100B0000B8BFB0EE410AB1EEC01AB4EE411AF1EE30
:100B100010FA80F1288140F2EC30C2F20000B0EE11
:100B2000410A05F093FC40F66C20C2F2000088ED0B
:100B3000000A90ED000A40F2A800C2F2000090ED19
:100B4000001A99ED002A30EE010A40F2684030EEBA
:100B5000420AC2F2000005F079FC99ED011A40F258
:100B60006445C2F2000540F2101085ED000AC2F2A1
:100B70000000B0EE410A02F0DAFB95ED001A40F2F7
:100B8000CC0089ED010A31EE400AC2F2000005F006
:100B90005DFC8AED000A98ED001ABBF93A0031EECF
:100BA000400A01EE100AB8EEC11A40F28C1030EE85
:100BB000410AC2F2000005F049FC40F27C15C2F285
:100BC000000585ED000A9AED000A98ED001ABBF9C0
:100BD000520030EE410A01EE100AB8EEC11A40F29E
:100BE000E01030EE410AC2F2000005F02FFC40F2A6
:100BF000D014C2F2000484ED000A9AED000A98EDC8
:100C0000001ABBF9220030EE010A01EE100AB8EE1C
:100C1000C11A30EE010A40F21C30B1EE400AC2F2B5
:100C2000000005F013FC86ED000A9AED000A98ED2D
:100C3000001ABBF90A0030EE010A01EE100AB8EE04
:100C4000C11A40F2C82030EE410AC2F2000005F09D
:100C5000FDFB99ED001A40F2B820B0EEC11AB4EED7
:100C6000691AF1EE10FAC2F2000080ED000A3FDDD1
:100C7000BBF93A00404200EE100A40F28C10B8EE88
:100C8000C00AC2F2000005F0E1FB85ED000ABBF9E5
:100C90005200404200EE100A40F2E010B8EEC00AE6
:100CA000C2F2000005F0D2FB84ED000ABBF922007D
:100CB000404200EE100A40F21C30B8EEC00AC2F208
:100CC000000005F0C3FB86ED000ABBF90A004042B4
:100CD00000EE100A40F2C820B8EEC00AC2F20000CE
:100CE00005F0B4FB40F2B820C2F2000080ED000A2B
:100CF000BDEEC00A10EE100A96ED000A00BA40F2EE
:100D00008801000CC2F20001BDEEC00A088310EE9B
:100D1000100A95ED000A00BA000CBDEEC00A488327
:100D200010EE100A94ED000A00BA000CBDEEC00AE5
:100D3000888310EE100A00BA000CC88301A80121B4
:100D400005F09DFE40F2AC24C2F200048AE5B0EE4C
:100D5000420A07F053F9B0EE401A3EE6B0EE410AFF
:100D600007F04CF9A7E607F049F9B0EE401AD2E6D1
:100D700040F2E460C2F2000000F098BB80B504F0DD
:100D8000ACFB40F26450C2F20000BDE8804000F0CD
:100D90008DBB40F2C450C2F2000000F087BB40F2AD
:100DA0002460C2F2000000F081BB40F24470C2F245
:100DB000000000F07BBB40F28460C2F2000000F053
:100DC00075BB7047102000F090BD202000F08DBD55
:100DD000EFF3108072B600BFFEE790F82020013AD2
:100DE000012A04D8006800F11402002004E000F198
:100DF000240201204FF480211368194311607047C9
:100E0000B0B590F82020013A012A2FD846F20060B0
:100E1000C4F20000026842F001020260026822F49B
:100E20007C520260D1F814E0CC694A6A0368012C54
:100E300043EA022202600EF01F024FF0010303FAA0
:100E400002F2C3696FEA020C23EA0203C36113D002
:100E50002CBBC36803EA0C03C360CB688C8844EAEC
:100E6000034300EBCE0423640B4611E0416A41F4D6
:100E7000802141620120B0BDC3681343C3600B6889
:100E80008C8844EA034300EBCE04236401F10C0395
:100E90008C681B8843EA044300EBCE046364436818
:100EA0008D6943EA0204D1F810E0096A002D08BFF9
:100EB00003EA0C0444604369BEF1000F43EA0204F4
:100EC00008BF03EA0C040129446102D1C16911433E
:100ED000C161016821F0010101600020B0BD7047CF
:100EE00010B590F82040013C012C70D8D0F800C01B
:100EF00000290CBFDCF80C40DCF81040A4076CD0D3
:100F00000CEB011CDCF8B0410CF5D87E14F00404A5
:100F10009460DCF8B04119BFE4085460640D1460BB
:100F2000DEF80040002904F00204D460DCF8B4418B
:100F300004F00F041461DCF8B441C4F30724946195
:100F4000DCF8B4414FEA14445461DCF8B8211A705B
:100F5000026802EB0112D2F8B8214FEA12225A704D
:100F6000026802EB0112D2F8B8214FEA12429A70DD
:100F7000026802EB0112D2F8B8214FEA1262DA706D
:100F8000026802EB0112D2F8BC211A71026802EB6E
:100F90000112D2F8BC214FEA12225A71026802EB08
:100FA0000112D2F8BC214FEA12429A71026802EB98
:100FB0000112D2F8BC214FEA1262DA7100680CBF4C
:100FC00000F10C0100F11001002020220AE000F1E4
:100FD000240101204FF4802204E000F124010120CB
:100FE0004FF400120B681A430A6010BD2DE9F04F50
:100FF00081B0044600684669D0F804908768D0F84C
:101000000CB0D0F810A0D0F81880F10701D100255D
:1010100049E0F9070ED00121BA07816007D47807AB
:101020001DD4380721D4204600F0E4F902E0204620
:1010300000F0E1F90025F8051CD520684FF4807117
:10104000BA05816007D478050CD4380510D4204641
:1010500000F0D2F90EE0204600F0CFF90AE04FF49C
:101060000065E8E705F5005504E04FF48055E2E738
:1010700005F58045F80316D520684FF48031BA0392
:10108000816007D4780309D438030AD4204600F0DD
:10109000B5F908E0204600F0B2F904E005F5004596
:1010A00001E005F58035300707D51BF0100004D0AE
:1010B000206845F400751021C160700708D51BF049
:1010C000080005D020680821C160204600F047F9DB
:1010D000B00706D52068C068800702D0204600F01F
:1010E0003FF9700607D51AF0100004D0206845F4C7
:1010F000806510210161B00608D51AF0080005D0FE
:10110000206808210161204600F044F9F00606D568
:1011100020680069800702D0204600F03CF9B00347
:1011200008D519F0100005D0206810214160204634
:1011300000F032F9F00308D519F0080005D0206856
:1011400008214160204600F05BF9300440D55FEA99
:1011500049703AD506F4807008EA102028435FEA07
:101160008871014648BF41F00201B20558BF0146EF
:101170005FEA48700D4648BF45F00405700558BF4A
:101180000D46300521D518F070001ED0103800092A
:10119000052815D8DFE800F00306090C0F1245F00A
:1011A00008050DE045F010050AE045F0200507E0D0
:1011B00045F0400504E045F0800501E045F4807508
:1011C0002068816921F070018161206804214160FB
:1011D0004DB1606A40EA05012046616201B0BDE898
:1011E000F04FFFF77CBE01B0BDE8F08FB0B5C8B1DD
:1011F000044690F8200010B9204600F06FF82068EF
:10120000016841F00101016000F05BFC054600BF90
:1012100020684168C90707D100F053FC401B0B2828
:10122000F6D312E00120B0BD016821F00201016097
:1012300000F047FC054600BF2068416889070BD5D0
:1012400000F03FFC401B0B28F6D3606A052140F4F8
:101250000030606201203EE0217E0268012922F018
:10126000800208BF80320260617E0268012922F09C
:10127000400208BF40320260A17E0268012922F0CC
:10128000200208BF20320260E17E0268012922F0BC
:10129000100218BF10320260217F0268012922F07B
:1012A000080208BF08320260617F0268012922F04B
:1012B000040208BF04320260D4E901C2D4E9033554
:1012C00061691A432A431143ACF101021143C16120
:1012D00000200121606284F82010B0BD80B586B086
:1012E000016846F20040C4F20000814235D100217D
:1012F00043F630020191C4F20202136900F5D430C2
:1013000043F000731361136903F000730193019BB1
:101310000191136843F0080313601268022302F07E
:1013200008020192019ACDE90231092103220591B7
:1013300001A90192049200F0E3FA13200521002292
:1013400000F073FC132000F061FC14200521002242
:1013500000F06BFC142000F059FC06B080BD704713
:10136000B0B5016846F20042C4F20002914218BFD3
:10137000B0BD40F24054C2F2000404F11C0500214B
:1013800022462B46FFF7ACFD20462946BDE8B0407B
:10139000FFF717B97047704770470000B0B50446B3
:1013A00090F8200001281CD1022084F82000206839
:1013B000016821F00101016000F083FB054600BFD8
:1013C00020684068C00712D000F07BFB401B0B2850
:1013D000F6D3606A40F400306062052084F8200093
:1013E00003E0606A40F4002060620120B0BD00208C
:1013F0006062B0BD70477047704770477047704774
:101400007047000070B5866D044600F05AFB94F8F2
:101410003510022920D105462068216C026822F08F
:1014200016020260426922F08002426109B9A16C91
:1014300019B1016821F008010160016821F0010182
:10144000016000BF0068C0070AD000F03AFB401BF3
:1014500005280FD82068F5E78020606501200EE0A0
:10146000E06D3F2101FA00F0B060012084F8350002
:10147000002004E020206065032084F8350000216E
:1014800084F8341070BD90F83510022909D1052177
:1014900080F835100068016821F00101016000202A
:1014A000704780214165012070470000F0B581B090
:1014B00004460020009040F26C00C2F20000026876
:1014C000D4E9166048F2B51337680821C1F64E33E7
:1014D00081403942A2FB03250CD0226813685B07C8
:1014E00008D5136823F004031360B160616D41F007
:1014F0000101616501218140394208D022685269A9
:10150000120604D5B160616D41F0020161650421EC
:101510008140394208D022681268920704D5B16030
:10152000616D41F00401616510218140394217D09D
:1015300020680268120713D5B1600268016852037F
:1015400006D4C90506D4016821F00801016001E054
:10155000080301D4216C00E0A16C09B12046884742
:10156000E16D202000FA01F23A423CD02068036885
:10157000DB0638D5B26094F835300268052B1AD1F5
:1015800022F016020260426922F080024261226C5F
:101590000AB9A26C1AB1026822F0080202603F2068
:1015A0008840B060012084F83500216D002084F867
:1015B0003400B9BB3BE0016852030CD4C9050ED41A
:1015C000016821F010010160012084F8350000203D
:1015D00084F8340003E0080301D4616C00E0E16B9F
:1015E00009B120468847606D08B3606DC00717D009
:1015F000052084F835002068A90A026822F001025B
:10160000026000BF009A01328A42009202D802684A
:10161000D207F7D1012084F83500002084F8340087
:10162000E16C21B1204601B0BDE8F040084701B0AF
:10163000F0BD00002DE9F041044600F042FA002C14
:101640004DD00546022084F835000020216884F83A
:101650003400086820F00100086000BF0868C00777
:1016600006D000F02EFA401B052865D82168F5E762
:10167000086848F23F02CFF21002D4E90135024077
:1016800004F10C0E9EE8C1511A432A431043304323
:10169000384340EA0800626A40EA0C00042A40EA43
:1016A0000E031FD1D4E90A5E206B4EEA03021043F9
:1016B00008604869BEF1000F20F0030040EA050011
:1016C00040F0040C14D0B8F5005F39D0B8F1000F29
:1016D00045D1022D46D0012D3BD0002D41E0012007
:1016E000BDE8F0810B60486920F0070040EA020C79
:1016F0006FF00F004AF6AB2250FA81F0CAF6AA2228
:10170000A0FB02231A0948F24E13C0F600039A5CAC
:1017100040F2FF335F284FF03F00C1F814C021EAC8
:10172000030100FA02F088BF0431C4E91612886090
:101730000023012200201CE003222023032018E0C4
:10174000032DD5D8012240230120DFE805F0120B3C
:101750001202AEF1C070B0FA80F0400904E0032D2F
:1017600004D3C5D1CEF300600028C1D001224023AC
:101770000120636584F83520BDE8F08170B590F8EC
:1017800034C0BCF1010F45D04FF0010C80F834C0DB
:10179000D0F858E090F835C0BCF1010F37D14FF0C8
:1017A000020C80F835C04FF0000CC0F854C0D0F8DF
:1017B00000C08468056CC06DDCF80060402C26F425
:1017C0008026CCF80060CCF804300B4604BF1346EA
:1017D0000A463F2101FA00F0CCF80830CCF80C2082
:1017E000CEF80800DCF8000040F01600CCF800004D
:1017F0002DB1DCF8000040F00800CCF80000DCF867
:10180000000040F00100CCF80000002070BD002175
:1018100080F83410022070BD10B50F2821DC01289B
:1018200030D0082860D140F6A411C2F20001087837
:1018300040F001000870087810F00100087053D0E3
:10184000087800F0FE000870087840F0020240F6C8
:101850009410C2F2000004300A70BDE8104005F098
:10186000BBB820282ED010283ED140F2BA40C2F298
:101870000000017841F00101017040F2B940C2F26C
:10188000000023E006F041F801282DD040F260105E
:10189000C2F2000040F240140068C2F20004214687
:1018A00005F0EAFD2068002808BF10BD4EF6045080
:1018B000CEF200004FF080510160BFF34F8FBFF3B5
:1018C0006F8F11E040F21050C2F20000017841F039
:1018D0000101017040F65810C2F20000007818B102
:1018E000BDE8104004F08ABF10BD43F61441C4F2B5
:1018F00001010A68024214BF08607047FFF78CBFFD
:101900002DE9F04F82B000F13E4241F6004502F170
:10191000FF77C4F2020508224FEAB726A84208BFA3
:101920000722072E38BF4FEAB7224FF0010A0024E2
:1019300000274FF0000800920E680AFA08F916EA2C
:10194000090F00F0AE80D1F804A00AF0030BABF150
:101950000106012E18D80322866802FA07FECA681B
:1019600026EA0E06BA40324382604268CAF3001586
:1019700022EA090205FA08F54FEA480C6FEA0E065A
:101980002A4342600CE000BF0322BA40D643BBF1B9
:10199000030FBC4604D1BC464FF0030B22E000BF4E
:1019A000C2688D68324005FA0CF52A43BBF1020F7C
:1019B000C26017D16FF0030202EA5802024404F039
:1019C0001C030F25D2F820E005FA03FA0D692EEA70
:1019D0000A0E05FA03F343EA0E031362D1F804A0DA
:1019E0000AF0030B02680BFA0CF332401A431AF4A4
:1019F000403F4FF0010A026053D0002243F64403F7
:101A00000192C4F202031A6843F6004E42F4804287
:101A10001A601A68C4F2010E02F480420192019A1F
:101A200028F003024FF6084C7244CFF6FF7C52F8C0
:101A30000C3004F00C060F25B540AB43009D05FAB1
:101A400006F6334342F80C30DEF808204B6842EAD1
:101A5000090643F60C4CDD0258BF22EA0906CEF80F
:101A60000860C4F2010CDCF800209D0242EA09067D
:101A700058BF22EA0906CCF80060DEF804209D0376
:101A800042EA090658BF22EA0906CEF80460DEF8E9
:101A90000020DB0342EA090658BF22EA0906CEF815
:101AA0000060023708F10108202F04F104047FF4DC
:101AB00043AF02B0BDE8F08F002A08BF090481617E
:101AC000704744F28460C2F200000068704740F240
:101AD000B00044F28461C2F20000C2F2000100785A
:101AE0000A6810440860704780B543F60040C4F2AD
:101AF0000200016841F400710160016841F48061F5
:101B00000160016841F480710160032000F0B8F8C1
:101B10000F2000F004F800F058F8002080BD70B5E8
:101B200086B0002543F640010195C4F202010A681F
:101B3000044642F001020A60096801A801F00101AF
:101B400001910199694600F052F9049E002E18BFD8
:101B5000012600F06BF94DF68361B040C4F21B31F1
:101B6000A0FB01014FF0FF3000EB914140F6440033
:101B7000C2F200004FF0804240F2E733C0E900219A
:101B8000C0E902530561856100F0BFFD0546C8B993
:101B900040F64400C2F2000000F0FCFD054688B9A2
:101BA0001C2000F033F80F2C0BD81C2021460022FB
:101BB000002500F03AF840F2B400C2F200000460E0
:101BC00000E00125284606B070BD82B0002043F633
:101BD00040010190C4F202014A6842F480424A6026
:101BE0004A6802F480420192019A0090086800223B
:101BF00040F08050086008680F2100F0805000908D
:101C000000986FF0010002B000F00FB800280BD46C
:101C100000F01F01012202FA01F14EF20012400908
:101C2000CEF2000242F82010704710B54EF60C5C60
:101C3000CEF2000CDCF80030C3F3022E8EF0070465
:101C4000042C28BF0424BEF103034FF0FF3E0EFA1C
:101C500004F438BF0023A14399400EFA03F39A43DA
:101C6000114300F00F02043A624409010C3200F102
:101C70006043B0F1FF3FC8BF03F56442117010BD6F
:101C80004EF60C51CEF200010A684FF6FF031A40DF
:101C900060F30A2242F0806040F0FD7008607047F7
:101CA0002DE9F041002878D043F60008C4F202087C
:101CB0000446D8F800040D4600F00700884207D219
:101CC00088F80054D8F8000400F00700A84264D156
:101CD0002068810717D5410705D5D8F8081041F4C9
:101CE000E051C8F80810010705D5D8F8081041F4EC
:101CF0006041C8F80810D8F80810A26821F0F00177
:101D00001143C8F80810C0073FD1D8F8000400F00C
:101D10000700A84207D988F80054D8F8000400F05A
:101D20000700A84239D12068410707D5D8F8081024
:101D3000E26821F4E0511143C8F80810000708D503
:101D4000D8F80800216920F4604040EAC100C8F8D2
:101D5000080000F091F8D8F8081048F22412C1F3F6
:101D60000311C0F60002515C40F26C0220FA01F14E
:101D700040F2B400C2F200000068C2F2000211603A
:101D8000FFF7CDFE0020BDE8F0816068811E0229CA
:101D900006D2D8F80010890108D40120BDE8F081EE
:101DA00001281FD1D8F800108903F6D5D8F80810FB
:101DB00021F003010843C8F80800FFF782FE064639
:101DC00041F28837D8F80800616800F00C00B0EBE9
:101DD000810F9AD0FFF775FE801BB842F2D903201D
:101DE000BDE8F081D8F800108907D6D5DEE70F22CC
:101DF000026043F60802C4F20202136803F0030310
:101E00004360136803F0F0038360136803F4E05346
:101E1000C360D2F800C04FF4E05303EADC0303616F
:101E2000D2F8F80300F007000860704740F26C0039
:101E300043F60801C2F20000C4F20201006809681A
:101E400048F23412C1F38221C0F60002515CC8404E
:101E5000704740F26C0043F60801C2F20000C4F281
:101E600002010068096848F23412C1F34231C0F639
:101E70000002515CC840704710B543F60404C4F238
:101E80000204606800F00C0008280AD0042819BF7A
:101E900042F20040C0F2F40041F60030C0F2B70058
:101EA00010BD206821682368490241F60031C0F264
:101EB000B70100F03F02C3F388105CBF42F200415B
:101EC000C0F2F401A1FB00010023FEF779F92168BB
:101ED0000222C1F3014102EB4101B0FBF1F010BD60
:101EE0002DE9F04182B0002867D00446007843F61F
:101EF0000006C007C4F202060BD0B06800F00C0068
:101F0000042840F098803068800302D5606800287B
:101F100053D0207880071AD5B06810F00C0F09D084
:101F2000B06800F00C00082840F09F807068400204
:101F300000F19B803068800702D5E06801283CD121
:101F40003068216920F0F80040EAC1003060207854
:101F5000000734D42078400747D4A5695DB3B06842
:101F600000F00C00082840F0B380012D25D07068E7
:101F7000E16900F480028A421FD1216A00F03F0229
:101F80008A421AD147F6C071626A0140B1EB821FE2
:101F900013D1A26A0023CFF6FF7303EBC23200F421
:101FA00040316FF30F02914207D1E16A00F0706097
:101FB000B0EB016F01D10020F0E00120EEE060699C
:101FC000002840F20000C4F2472071D00121C0F87F
:101FD000801EFFF776FD0546706F8007BAD4FFF7C5
:101FE00070FD401B0228F7D9D7E0306C10F0805804
:101FF0000AD100200190306C40F080503064306C89
:1020000000F080500190019847F20007C4F20007E9
:102010003868C0053ED4386840F480703860FFF7F7
:1020200050FD05463868C00534D4FFF74AFD401B13
:102030000228F7D9B1E0B06800F00C00082803D1FD
:10204000706840023FF55FAF6068B0F5803F07D031
:10205000B0F5A02F40F08B80306840F480203060D5
:10206000306840F4803030608BE0E068002851D068
:102070000020C4F2472001210160FFF722FD054640
:10208000306880073FF55CAFFFF71BFD401B02285F
:10209000F6D982E0A068012805D005284ED1306F1E
:1020A00040F004003067306F40F0010030674FE0CF
:1020B0000021C0F8801EFFF704FD0546706F800701
:1020C0007FF548AFFFF7FDFC401B0228F6D964E01E
:1020D0000027C4F2472700203866FFF7F2FC022DE4
:1020E00005460BD1306880015BD5FFF7EAFC401B49
:1020F00002284FF00300F5D950E000BF306880019E
:102100007FF559AFFFF7DDFC401B02284FF00300BD
:10211000F4D943E00020C4F2472000210160FFF71A
:10212000D0FC0546306880077FF511AFFFF7C9FC8A
:10213000401B02284FF00300F4D92FE0316F002834
:1021400021F001013167316F21F0040131674BD07B
:10215000FFF7B7FC054641F2883700BF306F8007B4
:1021600053D4FFF7AEFC401BB842F7D915E03168F5
:10217000002821F480313160316821F48021316000
:102180004CD0FFF79EFC0546306880033FF5C1AE9A
:10219000FFF797FC401B6428F6D9032002B0BDE886
:1021A000F08104F11C052FCD08430021CFF6FF710B
:1021B00040EA821001EBC3316FF30F0140EA056082
:1021C0000843706001203866FFF77BFC044600BFBF
:1021D000306880013FF5EFAEFFF773FC001B02286B
:1021E0004FF00300F4D9D9E7FFF76BFC054641F245
:1021F000883700BF306F800707D5FFF762FC401BB0
:10220000B8424FF00300F5D9C8E7B8F1000F7FF4EA
:10221000A4AE306C20F0805030649EE6FFF751FC95
:10222000054600BF306880037FF573AEFFF749FCB9
:10223000401B64284FF00300F4D9AFE77047B0B5F6
:1022400082B0044600684168826812F0400305D1FC
:1022500012F0010518BF11F040050ED1950704D505
:1022600011F0800501D0616C08E012F4B07F18BF56
:1022700011F0200507D102B0B0BD216C204602B09C
:10228000BDE8B0400847B3B194F85130032B07D1F3
:1022900000210191C1680191806801900198EAE7ED
:1022A000636D43F00403636500230193C3680193E6
:1022B00083680193019B12F0200302F480720CD01A
:1022C000636D43F001036365002301938368019309
:1022D000036823F040030360019B42B1626D42F04A
:1022E000080262650022019282680192019A626D81
:1022F000002AC0D04268890722F0E00242604FF015
:10230000010284F851201ED0416844F61F1521F0C7
:1023100003014160E06CC0F6000538B10565FFF7C8
:10232000B2F818B1606D40F040006065A06C002804
:10233000A1D00565FFF7A7F800289CD0606D40F09C
:102340004000606597E7204602B0BDE8B040FFF767
:1023500075BF70B538B10446406A30B100202061C5
:1023600004F1140007E001264BE06068B0F5827FBD
:1023700003D004F11C00002101600026A66294F83D
:10238000510020B9204684F8506000F03CF802204B
:1023900084F8510094E80F0001F48271056802F49A
:1023A000044225F040050560114403F400622369EE
:1023B000114403F002026369114403F00102A369AE
:1023C000E569114403F40072114405F03802256AEE
:1023D000114405F08002A56A114305F4005211432F
:1023E0000160626A042101EA134102F01002114403
:1023F0004160C16921F40061C1610120666584F812
:102400005100304670BD2DE9F04F85B0044600689C
:1024100043F20007C4F20107B84240F0838000266F
:1024200043F630000096C4F2020041696D4641F463
:1024300080514161416946F2404801F48051009168
:102440000099009601684FF0020941F00201016015
:1024500001684FF0030A01F0020100910099009613
:1024600001684FF0050B41F0010101600068294649
:1024700000F00100009000981820009007F55440EB
:10248000C4F20208CDE90196CDF80CA0CDF810B049
:10249000FFF736FA8020CDE9000902A880E8400C59
:1024A00007F550402946FFF72BFA40F26455C2F277
:1024B00000054FF0C0674FF4806905F11400142146
:1024C000C5E90087C5E90266C5F81090FDF7C2FEB0
:1024D0002846FFF7AFF808B1FEF77AFCE564AC6375
:1024E00040F2C45508F11800C2F200054021C5E9C8
:1024F000000705F1080080E8420205F114001421EC
:10250000FDF7A8FE2846FFF795F808B1FEF760FC36
:10251000232005210022A564AC63FFF786FB23205E
:10252000FFF774FB05B0BDE8F08F00002DE9F04324
:1025300081B0044690F85000012801D10220C8E083
:1025400001201E4615460F4684F85000FFF7B9FAE1
:1025500094F85110814601290BD06068B0F5827F54
:1025600073D1A06800284FF0020008BF042940F092
:10257000AA80002F4FF0010000F0A580002D00F090
:10258000A280002E00F09F8094F8510000210428C2
:102590001CBF052084F851006165A563E687A68706
:1025A0002763E6862068A68621646164016849067F
:1025B00003D4016841F0400101606168731EE26864
:1025C000B1FA81F1B3FA83F3DDF8208049095B09A0
:1025D000B2F5006F41EA030139D131B137F8021B7E
:1025E000C1602763E08E0138E086012608F101050D
:1025F000E08E10B9E08F00286ED0206881688907CE
:102600000CD5E18E51B1012E08D1216B002631F895
:10261000022BC2602163E18E0139E1868168C9071E
:102620000AD0E18F41B1C068A16B012621F8020BED
:10263000A163E08F0138E087FFF743FA002DD7D080
:10264000A0EB09004045D3D33CE002203BE039B188
:1026500039780173206B01302063E08E0138E08609
:10266000012608F1010500BFE08E08B9E08F98B39C
:102670002068816889070ED5E18E61B1012E0AD1EB
:10268000216B002609780173216B206801312163D9
:10269000E18E0139E1868168C9070BD0E18F49B12C
:1026A000C068A16B01260870A06B0130A063E08FA9
:1026B0000138E087FFF705FA002DD5D0A0EB09001F
:1026C0004045D1D30320012184F85110002184F822
:1026D000501001B0BDE8F083204641464A4602F062
:1026E00025F918B1202060650120ECE7A0680028DA
:1026F0004FF00000E7D100902168CA680092896815
:1027000000910099DFE77047704740B310B5044669
:1027100090F83D0028B9002084F83C00204600F0E5
:1027200020F8022084F83D002068211D02F0A0FB63
:10273000012084F8460084F83E0084F83F0084F8C5
:10274000400084F8410084F8420084F8430084F893
:10275000440084F8450084F83D00002010BD0120AD
:10276000704781B0006844F20041C4F20101884220
:102770000ED10020009043F64400C4F2020001682C
:1027800041F400310160006800F4003000900098CE
:1027900001B0704790F83D1001291CBF012070471F
:1027A000022180F83D10006841F2FF72C168C4F256
:1027B0000002904241F00101C1600BDC40F2FF7168
:1027C000C4F20001884213DCB0F1804F27D040F200
:1027D000004115E040F2FF31C4F20101884212DCF1
:1027E00041F60001C4F20001884218D0002112E035
:1027F00040F60001C4F20001884210D040F60041CA
:10280000C4F2000109E044F20001C4F2010188426F
:1028100005D040F20041C4F20101884204D1816830
:1028200001F00701062903D0016841F001010160B0
:1028300000207047704710B501680446086980079A
:1028400044BFC8685FEA807038D40869400744BF55
:10285000C8685FEA40703DD40869000744BFC86893
:102860005FEA007043D40869C00644BFC8685FEAE5
:10287000C06048D40869C0071CBFC8685FEAC07060
:102880004ED10869000644BFC8685FEA00604FD4B3
:102890000869400644BFC8685FEA406050D40869D0
:1028A000800646BFC8685FEA806010BD6FF02002F6
:1028B00020460A61BDE81040FFF726BF6FF0020016
:1028C0000861012020778869800741D02046FFF702
:1028D000B1FF43E06FF004000861022020778869AF
:1028E00010F4407F3ED02046FFF7A4FF40E06FF099
:1028F0000800086104202077C86980073CD0204682
:10290000FFF798FF3EE06FF0100008610820207785
:10291000C86910F4407F39D02046FFF78BFF3BE0B9
:102920006FF001000861204600F0DCF82168A8E79C
:102930006FF0800008612046FFF7E5FE2168A7E7F9
:102940006FF040000861204600F0D3F82168A6E748
:10295000204600F04CF8204600F0C3F82168002023
:10296000207772E7204600F042F8204600F0B9F8E0
:102970002168002020776FE7204600F038F82046D5
:1029800000F0AFF82168002020776CE7204600F0C7
:102990002EF8204600F0A5F821680020207769E78E
:1029A00080B586B0016844F20040C4F20100814263
:1029B0001BD1002143F630020191C4F202021368D8
:1029C00000F5504043F020031360126802F020022B
:1029D0000192019A402201920222CDE90221049142
:1029E0000321059101A9FEF78BFF06B080BD70475A
:1029F000B0B5044690F83C00012804BF0220B0BDE9
:102A00000D464FEAB2010120032984F83C0037D873
:102A1000DFE801F0020A12222068294602F0B6FA25
:102A2000206850F8181F0EE02068294602F0E0FAEE
:102A3000206850F8181F16E02068294602F00DFBA8
:102A4000206850F81C1F41F008010160016821F066
:102A50000401016029690FE02068294602F031FB7A
:102A6000206850F81C1F41F400610160016821F4E6
:102A70008061016029690902026811430160002038
:102A8000002184F83C10B0BD40B310B5044690F866
:102A90003D0028B9002084F83C00204600F020F8D2
:102AA000022084F83D002068211D02F0E1F9012098
:102AB00084F8460084F83E0084F83F0084F8400023
:102AC00084F8410084F8420084F8430084F844000C
:102AD00084F8450084F83D00002010BD01207047B7
:102AE000704770470068B0F1804F08BFFEF7EFBF36
:102AF0007047704770477047B0B582B004460068B1
:102B00000168C368426901F02F05202D03F02005FC
:102B100006D12DB1204602B0BDE8B04002F0A0BB06
:102B20005FEA017C1EBF02F0010E03F4907212EB0B
:102B30000E027DD1226B012A05D111F0100218BFBF
:102B400013F0100239D10A0623D513F0800220D0E9
:102B500094F83D10212940F00581A168B1F5805F0E
:102B600003D12169002900F01681216A4A1C2262E2
:102B700009784160E18C01390A04E18440F0F28077
:102B8000C16821F08001C160C16841F04001C160AD
:102B9000E8E0490640F1E68013F0400100F0E280F1
:102BA000C16821F04001C1602021204684F83D1019
:102BB00002B0BDE8B04000F082BA00210191016886
:102BC0000191416801910199416949067BD4A18D28
:102BD000E28DE38D002B00F0C580891A0A0400F015
:102BE000C18000BF50E8030F226820F4907042E8D3
:102BF00003030BB12068F5E7206850E8050F226851
:102C000020F0010042E80503002BF5D1202084F8D4
:102C10003E000020206300BF206850E8030F2268B8
:102C200020F0100042E80303002BF5D189B28EE0BA
:102C3000CA0718BF13F4807203D0226C42F001025D
:102C400022644A0706D5BEF1000F03D0226C42F081
:102C5000020222648A0706D5BEF1000F03D0226C5F
:102C600042F004022264BCF1000F06D555EA0E02C0
:102C700003D0226C42F008022264226C002A71D038
:102C800011F0200118BF002D03D0204602F0E8FA11
:102C900020684069216C00F0400001F008014018F4
:102CA0005BD0204602F0B4FA2068416949066CD531
:102CB00050E8050F216820F0400041E80502002A95
:102CC00052D02068F4E7A26B11684B689DB2002DCA
:102CD00048D0A18D8D4245D2E385D269B2F5807F7F
:102CE00032D000BF50E8030F216820F4807041E823
:102CF00003020AB12068F5E7206850E8050F216853
:102D000020F0010041E80502002AF5D1206850E8D2
:102D1000050F216820F0400041E80502002AF5D1A6
:102D2000202084F83E000020206300BF206850E887
:102D3000030F216820F0100041E80302002AF5D1BA
:102D4000A06BFEF75FFBA18DE08D081A81B22046D3
:102D500002B0BDE8B040FFF7CDBE2046FFF7CBFE86
:102D60000020206402B0B0BDA06B70B145F211111B
:102D7000C0F600010165FEF786FB0028F2D0A06BCB
:102D8000016D02B0BDE8B0400847204602B0BDE882
:102D9000B040FFF7B0BE216A31F8022B6FF35F221B
:102DA00042602162E6E650B310B5044690F83D005B
:102DB00028B9002084F83C00204600F022F82420A6
:102DC00084F83D002068C16821F40051C1602046AC
:102DD00002F0A8FA2068016921F49041016141697B
:102DE00021F02A014161C16841F40051C160002015
:102DF0002021206484F83D1084F83E1010BD01208D
:102E000070472DE9F04F87B0044602A81421FDF762
:102E100021FA206844F60001C4F20001884200F063
:102E2000908041F20041C4F20101884200F0D68056
:102E300041F20001C4F20101884240F023810027E1
:102E400043F630000197C4F202004169002541F0C9
:102E5000100141614169C4F2020501F010010191C4
:102E600001990197016802AE41F002010160016819
:102E700046F2884801F00201019101990197016829
:102E80004FF0020941F00101016000684FF0030AB0
:102E900000F0010001900198802002904FF0070B94
:102EA00005F580603146C4F20208CDE90397CDF8FC
:102EB00014A0CDF818B0FEF723FD4FF40070CDE953
:102EC000020904A880E8800C28463146FEF718FD68
:102ED00040F2846508F13000C2F200054FF0006650
:102EE0004021C5E9000605F108004FF4806980E83B
:102EF000820205F114001421FDF7ACF92846FEF713
:102F000099FB08B1FDF764FF6563AC6340F224658B
:102F1000C2F200054FF48070C5E906702846C5E985
:102F20000086C5E90277C5E90497C5E90877FEF789
:102F300081FB08B1FDF74CFFA56305F1380025259D
:102F400097E0002643F630000196C4F202000169C2
:102F500041F480210161016901F48021019101990D
:102F60000196016841F004010160006802A900F0C7
:102F70000400019001984FF4406002900220CDE9D6
:102F8000030603200590072006900020C4F20200EB
:102F900000F50060FEF7B4FC46F28840C4F202007F
:102FA00040F2E465A0F58C60C2F200054FF00061CC
:102FB0004FF4806285E8430005F114001421C5E94F
:102FC0000362FDF747F92846FEF734FB08B1FDF729
:102FD000FFFEA56305F1380027254AE0002643F6E9
:102FE00030000196C4F20200416941F020014161C4
:102FF000416901F02001019101990196016841F0B8
:1030000040010160006802A900F0400001900198B1
:103010004FF4844002900220CDE90306032005907E
:10302000082006900020C4F2020000F5C050FEF710
:1030300067FC46F28840C4F2020040F24475183042
:10304000C2F200054FF0206140224FF4806385E812
:10305000470005F1140014212B61FDF7FBF8284609
:10306000FEF7E8FA08B1FDF7B3FE656305F1380035
:1030700047250460284605210022FEF7D6FD284694
:10308000FEF7C4FD07B0BDE8F08F10B590F83E30F4
:10309000202B07D14FF0010429B122B190F83C3028
:1030A000012B02D10224204610BD0123002480F808
:1030B0003C30046302F0A4F9F5E7704770477047AD
:1030C000FEE7B0B540F2A024C4F24024002540F64B
:1030D00000002560C4F20200016821F44021016073
:1030E000016841F48021016040F2A420C4F2412033
:1030F0000560022003F08AF901202060022003F01D
:1031000085F92560B0BD70B540F2A024C4F240241A
:10311000002540F600002560C4F202000168012687
:1031200021F440210160016841F48021016040F2F6
:10313000A420C4F241200660022003F067F90220B7
:10314000266003F063F9256070BD00002DE9F047AB
:1031500040F60001C4F202010A68804622F44020D1
:103160000860086840F2A02640F22427C4F24026F6
:103170004FF000094FF0010AC4F241270025002456
:10318000086000BF0220C6F8009003F03FF9C6F8BF
:1031900000A03868002818BF012040EA450501203A
:1031A00003F034F9072C04F10104EBD3B8F1000F5C
:1031B00002D0FFF786FF01E0FFF7A5FFE8B2BDE808
:1031C000F08700002DE9F04381B040F60001C4F221
:1031D00002010A68044622F440200860086840F2B0
:1031E000A02540F2A429C4F2402540F480204FF0ED
:1031F0000008C4F24129012600270860C5F80080B4
:10320000E0B2C009C9F800000220640003F0FEF833
:1032100002202E6003F0FAF80220C5F8008003F0C7
:10322000F5F8072F07F10107EAD301B0BDE8F083F5
:1032300070B540F60000C4F20200016840F2A42418
:1032400021F440210160016840F2A02541F4802171
:103250000160C4F241240120C4F2402520602860AE
:10326000042003F0D3F800260420266003F0CEF8F3
:103270002E6070BDB0B540F60000C4F202000168D7
:1032800040F2A02421F440210160016840F2A4250D
:1032900041F480210160C4F240240020C4F24125A1
:1032A00020602860042003F0B1F80121216004208F
:1032B0002960BDE8B04003F0A9B8000070B540F641
:1032C0000000C4F20200016840F2242421F44021ED
:1032D00001600168C4F2412440F2A025016001268A
:1032E0000120C4F24025C4F8806003F08FF801206B
:1032F0002E6003F08BF80020216839B1FA2800F124
:103300000100F9D3FFF7B6FF012070BD002028604F
:1033100070BD00214FF07E52416180ED090AC0ED81
:103320000A0AC0E90721C262C0E90011704790EDA6
:10333000051A90ED072A90ED093A90ED0A4A22EE1F
:10334000011A31EE031A31EE043A81EE033A90EDA0
:10335000004A80ED031A22EE042A30EE420A80ED84
:10336000012A23EE000A30EE020AB7EE002A32EEFE
:10337000432A21EE021A80ED063A80ED020A80ED22
:10338000041A80ED051A80ED000A704780B540F2FE
:10339000185046F20041C2F20000C4F200010322BC
:1033A000002380E80E0000F10C014FF4102C4FF4C4
:1033B000001E81E808504FF480710183C0F81A3074
:1033C000FDF714FF18B1BDE88040FDF701BD80BDD9
:1033D00080B582B0002043F630010190C4F20201B2
:1033E0000A6842F480020A600A6802F480020192CC
:1033F000019A00900868002240F4001008600868F4
:10340000052100F40010009000980C20FEF70DFC40
:103410000C20FEF7FBFB3A2005210022FEF705FCFD
:103420003A20FEF7F3FB3B2005210022FEF7FDFBCF
:103430003B20FEF7EBFB442005210022FEF7F5FBC5
:103440004420FEF7E3FB452005210022FEF7EDFBBB
:103450004520FEF7DBFB462005210022FEF7E5FBB9
:10346000462002B0BDE88040FEF7D0BB10B596B054
:1034700048F2EC00C0F6000090E80E50D0E905409C
:103480000F91CDE914400FA8002110921193CDF8AF
:1034900048C0CDF84CE003F006FB40F6AC11C2F298
:1034A0000001086048F2D000C0F6000090E81E500D
:1034B000806908910E9008A8002109920A930B9444
:1034C000CDF830C0CDF834E003F0EDFA40F6A811A5
:1034D000C2F20001086048F20810C0F6000090E84F
:1034E0001E5080690191079001A800210292039368
:1034F0000494CDF814C0CDF818E003F0D4FA40F6E7
:10350000B011C2F20001086016B010BD2DE9F04301
:1035100087B0002743F6300006970197C4F20200F7
:103520000168002541F0400101600168C4F2020514
:1035300001F040010191019901970168002241F0D9
:10354000020101600168102601F002010191019958
:103550000197016841F001010160016801F001017A
:10356000019101990197016841F00801016001682A
:1035700001F00801019101990197016841F00401EE
:103580000160016801F0040101910199019701684E
:1035900041F080010160016801F080010191019911
:1035A0000197016841F0200101600068102100F0DE
:1035B0002000019001982846FEF77EFA05F5806408
:1035C0002046012100224FF00108FEF775FACDE9EF
:1035D000026802AE4FF00309284631460497CDF841
:1035E0001490FEF78DF9302002904FF48810CDE949
:1035F000030705F500603146FEF782F920463146A3
:10360000CDE90288CDE90479FEF77AF90A2005218F
:103610000022FEF70AFB0A20FEF7F8FA1720052120
:103620000022FEF702FB1720FEF7F0FA07B0BDE814
:10363000F08310B540F2A47043F20001C2F2000022
:10364000C4F201014FF4827200234FF0010C4FF4D9
:10365000007E102480E80E000A21C0E90333C0E98F
:1036600005CEC461C0E90833C0E90A31FEF771FE36
:1036700018B1BDE81040FDF7ABBB10BD80B588B0F8
:1036800040F2FC7044F200420021C2F20000C4F299
:10369000010241F28733CDE90611CDE90411C0E9F9
:1036A0000021C0E9021301618161FFF72EF808B122
:1036B000FDF78EFB40F2FC70C2F20000FFF7E4F968
:1036C00008B1FDF785FB602001900020CDE90200E4
:1036D000059040F2FC70C2F2000001A90022FFF741
:1036E00087F908B1FDF774FB40F2FC70C2F20000EC
:1036F000FFF756F908B080BD10B540F68C0441F2D2
:103700000000C2F20004C4F201004FF4E1310022D3
:103710000C2384E807002046C4E90322C4E90532EB
:10372000E261FFF740FB08B1FDF752FB236840F26E
:103730003041D868C2F2000140F0100C20461C2233
:10374000C3F80CC0BDE81040FFF79FBC80B540F641
:10375000D00044F60001C2F20000C4F2000148F2B9
:10376000A06200234FF00C0CC0F2010280E80E00B2
:10377000C0E90333C0E905C3C361FFF714FB18B107
:10378000BDE88040FDF724BB80BD80B540F6141035
:1037900041F20041C2F20000C4F2010100234FF0E7
:1037A0000C0C4FF4E13280E80E00C0E90333C0E9AD
:1037B00005C3C361FFF7F7FA18B1BDE88040FDF714
:1037C00007BB80BDB0B52DED108B84B0B5EE403A8F
:1037D000F0EE416AB0EE609AB0EE40AAF1EE10FA57
:1037E000044617D1F5EE403AF1EE10FA12D1B5EEDB
:1037F000404AF1EE10FA0DD12046B0EE4A0AF0EE42
:10380000490AB0EE661A04B0BDEC108BBDE8B040BA
:1038100000F000BAF5EE401A45F6DF15F1EE10FAA9
:10382000C5F637750AD1B5EE402AF1EE10FA05D18A
:10383000F5EE402AF1EE10FA00F0628122EE020A63
:1038400021EEA11A31EE005A23EEA30A23EE031A49
:1038500031EE000A24EE041A31EE000A10EE100ACE
:10386000FEEE007AA5EB600001EE100A20EE270ABA
:1038700020EE010AB7EE086A20EE010A30EE060AD1
:1038800020EE010A20EE03BA20EE23CA20EE04EA5D
:1038900094ED020A94ED031A60EE00BAB6EE003A17
:1038A00021EE01FA33EE6B4A74EE4F5A94ED004A62
:1038B00094ED017A64EE010A67EE003A73EEE04A95
:1038C00060EE01FA67EE019A33EEA01A67EE070A7E
:1038D00073EE608A38EECF3ACDED034A6CEE244A9F
:1038E000CDED025A6BEE255A24EE00DA2CEE033AA7
:1038F0002BEE011A64EE07AA75EEA44A7DEE295A52
:1039000031EE031A3FEEEA3A2EEE250A2EEE033A86
:1039100030EE240A33EE011A30EE000A31EE011ABD
:1039200021EE011A20EE000A30EE011AB1EEC10AB2
:1039300022EEA23A33EE053A13EE100AA5EB600030
:1039400023EE273A05EE100A23EE053A23EE053A58
:1039500033EE063A23EE053A63EE21CA63EE02DA4D
:1039600063EE22EAB4EE400AF1EE10FA24EE048A85
:1039700080F13C8139EECD2A3AEEAF3A2CEE031AB3
:103980002BEE024A34EE011A38EEEB4A2EEE045AC0
:1039900035EE011A9DED026A31EE011A20EE066A3B
:1039A00022EE017A36EE076A9DED037A38EE275A49
:1039B00035EE0F5A20EE077A63EE010A24EE011A63
:1039C00020EE250A37EE207A30EE011A23EE2E0A79
:1039D0002DEE854A34EE400A27EE0E4A6CEE010ABF
:1039E00030EEC44A34EE000A25EE2C4A2EEE825AFE
:1039F00040F6782035EE444A21EE0B1A2EEE065A98
:103A0000C2F2000035EE411A22EE2D2A2CEE833A46
:103A100090ED005A31EE041A33EE422A26EE0C3AAB
:103A20002BEE074A34EE433AB5EE405AF1EE10FA67
:103A300033EE022A3EDD90ED003A40F68811C2F2E4
:103A400000019FED724A20EE033A91ED005A23EEF9
:103A5000043A33EE053A81ED003A90ED003A40F633
:103A60008C12C2F2000221EE033A92ED005A23EECC
:103A7000043A33EE053A82ED003A90ED003A40F612
:103A80009010C2F2000022EE033A90ED005A23EEAD
:103A9000043A33EE053A80ED003A91ED003A33EE08
:103AA0000AAA92ED003A90ED004A33EE099A74EEBC
:103AB000266A0FE040F68810C2F200000021016083
:103AC00040F68C10C2F20000016040F69010C2F285
:103AD0000000016040F2AC00C2F2000090ED003A3C
:103AE00023EE000A90ED003A30EE0AAA23EE010A16
:103AF00090ED001A30EE099A21EE020A70EE266A65
:103B00009FED430A94ED014A94ED025A2AEE001A01
:103B100029EE002A94ED036A26EE800A94ED003A1D
:103B200022EE057A64EE410A30EEC77A66EE000AAC
:103B300037EE607A60EE050A63EE011A71EEA00AB4
:103B400066EE021A70EEE10A60EE041A63EE022AD3
:103B500072EEE11A66EE012A22EE042A23EE000A32
:103B600033EE077A74EE200A72EEA11A30EE020AE2
:103B700025EE011A75EE211A30EE410A20EEA01A48
:103B800027EE072A36EE000A32EE011A21EEA12AAC
:103B900032EE011A20EE002A32EE011A11EE100A5E
:103BA000A5EB6000BEEE003A02EE100A21EE031A09
:103BB00021EE021A21EE021AB7EE083A31EE031A8C
:103BC00021EE021A27EE012A20EE813A21EE814AE7
:103BD00020EE010A84ED002A84ED013A84ED024AC8
:103BE00084ED030A04B0BDEC108BB0BDB0EE410A09
:103BF000CDED016ACDED005A04F000FADDED005A7A
:103C0000DDED016AFEEE007AB4E600BF6F12833A82
:103C10006F12033AF5EE401A45F6DF1CF1EE10FA8A
:103C2000C5F6377C10D1B5EE402AF1EE10FA0BD173
:103C3000F5EE402AF1EE10FA06D190ED014A90ED32
:103C4000023A90ED032AC1E022EE023A21EEA14AA7
:103C500034EE033A22EEA24A34EE033A13EE102A6F
:103C6000ACEB6202BEEE005A04EE102A23EE053AD7
:103C700023EE043A23EE043AB7EE086A33EE063A2E
:103C800023EE043A23EE217A63EE021A23EE226A2F
:103C9000D0ED002A90ED014A90ED023A90ED032A12
:103CA00063EE223A64EE024A62EE845A62EEA22A7F
:103CB00074EEE33A62EE034A32EE855A62EE022A6D
:103CC00075EEA44A72EE852A40F6782224EE865AD2
:103CD00061EEA25A62EE872A26EE236AC2F2000241
:103CE00036EE626AD2ED002A63EEA11A27EE247A3C
:103CF000F5EE402A35EEC55AF1EE10FA37EE617A4C
:103D00003EDDD2ED001A40F68813C2F20003DFED6B
:103D1000662A65EE211AD3ED003A61EEA21A71EE21
:103D2000A31AC3ED001AD2ED001A40F68C11C2F2AC
:103D3000000166EE211AD1ED003A61EEA21A71EE91
:103D4000A31AC1ED001AD2ED001A40F69012C2F289
:103D5000000267EE211AD2ED003A61EEA21A71EE6E
:103D6000A31AC2ED001AD3ED001A31EE800AD1ED8C
:103D7000001AD2ED002A71EEA00A32EE811A0FE08D
:103D800040F68811C2F2000100220A6040F68C1150
:103D9000C2F200010A6040F69011C2F200010A600E
:103DA00040F2AC01C2F20001D1ED001A21EE855AB9
:103DB000D1ED001A35EE000A21EE865A91ED006A27
:103DC00075EE200A26EE075A35EE011A9FED375A96
:103DD00020EE050A20EE856A21EE051A90ED005AC4
:103DE00026EE037A64EE400A30EEC77A62EE010AEC
:103DF00037EE607A61EE030A65EE001A71EEA00AF2
:103E000062EE061A70EEE10A74EE200A61EE041A00
:103E100065EE062A26EE044A25EE011A72EEE11A34
:103E200062EE002A31EE041A23EE000A35EE077A1C
:103E300072EEA11A31EE400A73EE211A32EE000A38
:103E400020EEA01A27EE072A32EE011A21EEA12A4F
:103E500032EE011A20EE002A32EE011A11EE101A8B
:103E6000ACEB6101BEEE003A02EE101A21EE031A2D
:103E700021EE021A21EE021AB7EE083A31EE031AC9
:103E800021EE021A27EE012A20EE813A21EE814A24
:103E900020EE010A80ED002A80ED013A80ED024A11
:103EA00080ED030A704700BF6F12833A6F12033A26
:103EB000FEE70000FEE780ED060AC0EC030A70474B
:103EC00046F2B35146F29152C0F60001C0F600022C
:103ED000C0E90F2100F11C01C1EC031A00F1280117
:103EE00081EC030A0021416380F83810C0E9031116
:103EF000C0E905117047000000000000000000004C
:103F0000EFF30980BFF36F8F154B1A681EF0100F87
:103F100008BF20ED108A20E9F04F10602DE909005C
:103F20004FF0500080F31188BFF34F8FBFF36F8FB6
:103F300003F058FB4FF0000080F31188BDE8090042
:103F400019680868B0E8F04F1EF0100F08BFB0EC19
:103F5000108A80F30988BFF36F8F704700BF00BFDE
:103F6000B40900202DE9F04F81B040F26453C2F251
:103F70000003D3F800C08046DCF8003023F00103D2
:103F8000CCF8003040F2C453C2F200031B681F6833
:103F900027F001071F60DCF80070FF0710D000BF9A
:103FA000DCF8000020F00100CCF80000DCF8000094
:103FB000C007F5D104E000BF186820F001001860C8
:103FC0001868C007F8D140F2A474C2F20004E06C93
:103FD00046F20C49C4F20209056846F2080E09F1DE
:103FE0004C0B46F28847C4F2020E5D45C4F202074C
:103FF00015D9BD4251D046F27040C4F2020085424C
:104000005DD12020C9F800001020C9F80000082068
:10401000C9F800000420C9F80000012075E00EF185
:10402000B0008542009117D946F21046C4F202064C
:1040300046F2284A46F24044B542C4F2020AC4F2AB
:10404000020441467AD0554575D0A5420CBF4FF4C5
:1040500000184FF0006873E00EF1500646F21001B0
:1040600046F2700AB542C4F20201C4F2020A4FD904
:10407000554500F0B68046F28800C4F20200854241
:1040800000F0B18046F2A000C4F2020085420CBFED
:104090004FF400104FF00060A7E04FF40060C9F843
:1040A00000004FF48060C9F800004FF40070C9F8B8
:1040B00000004FF48070C9F80000402025E009F1AD
:1040C00094064FF00060B54208BF4FF40010C9F8E5
:1040D00000004FF0806008BF4FF48010C9F8000066
:1040E0004FF00070B54208BF4FF40020C9F800003F
:1040F0004FF0807008BF4FF48020C9F800004FF4E3
:104100008000B54208BF4FF48030C9F8000063E179
:104110008D426DD046F22800C4F20200854269D07B
:1041200046F24000C4F2020085420CBF4FF400107A
:104130004FF0006060E04FF4006801E04FF02008AD
:10414000B542CEF800840CD05545884606D0A5422D
:104150000CBF4FF480104FF0806004E04FF480609B
:1041600001E010208846B542CEF800040BD055453A
:1041700006D0A5420CBF4FF400204FF0007003E0C2
:104180004FF4007000E00820B542CEF800040BD0D8
:10419000554506D0A5420CBF4FF480204FF08070EB
:1041A00003E04FF4807000E00420B542CEF8000434
:1041B0000AD0554506D0A5420CBF4FF480304FF4CD
:1041C000800002E0402000E00120009946F288478C
:1041D00040F2A474C4F20207C2F20004CEF8000454
:1041E000FAE0202001E04FF40060CEF8040005E082
:1041F000202001E04FF40060CEF80000B54212D953
:10420000554523D046F28800C4F2020085421FD0F3
:1042100046F2A000C4F2020085420CBF4FF48010A9
:104220004FF0806016E08D4217D046F22800C4F2AD
:104230000200854213D046F24000C4F202008542DB
:104240000CBF4FF480104FF080600AE0102001E0B6
:104250004FF48060CEF8040005E0102001E04FF438
:104260008060CEF80000B54212D9554523D046F201
:104270008800C4F2020085421FD046F2A000C4F2BA
:10428000020085420CBF4FF400204FF0007016E092
:104290008D4217D046F22800C4F20200854213D0A6
:1042A00046F24000C4F2020085420CBF4FF40020E9
:1042B0004FF000700AE0082001E04FF40070CEF8E3
:1042C000040005E0082001E04FF40070CEF8000083
:1042D000B54212D9554523D046F28800C4F20200F7
:1042E00085421FD046F2A000C4F2020085420CBFF6
:1042F0004FF480204FF0807016E08D4217D046F2C8
:104300002800C4F20200854213D046F24000C4F2F5
:10431000020085420CBF4FF480204FF080700AE00D
:10432000042001E04FF48070CEF8040005E0042082
:1043300001E04FF48070CEF80000B5421BD946F280
:10434000884740F2A4745545C4F20207C2F2000443
:104350002DD046F28800C4F202000099854229D08F
:1043600046F2A000C4F2020085420CBF4FF4803038
:104370004FF480001FE08D4220D046F22800C4F2A6
:104380000200009946F2884740F2A4748542C4F2C4
:104390000207C2F200041CD046F24000C4F2020040
:1043A00085420CBF4FF480304FF4800012E000993A
:1043B000012000E04020CEF804000DE0009946F214
:1043C000884740F2A4740120C4F20207C2F200043C
:1043D00000E04020CEF80000A06C06685E4515D9CC
:1043E000BE424CD046F27040C4F20200864258D120
:1043F0002020C9F800001020C9F800000820C9F8E2
:1044000000000420C9F80000012070E00EF1B000A7
:10441000864217D946F21044C4F20204A64200F0C4
:10442000848046F22840C4F2020086427AD046F2E6
:104430004040C4F2020086420CBF4FF400104FF01F
:10444000006073E00EF15004A64253D946F27000AA
:10445000C4F20200864200F0CF8046F28800C4F227
:104460000200864200F0CA8046F2A000C4F20200B8
:1044700086420CBF4FF400104FF00060C0E04FF4D4
:104480000060C9F800004FF48060C9F800004FF4E4
:104490000070C9F800004FF48070C9F80000402097
:1044A00025E009F194074FF00060BE4208BF4FF4C9
:1044B0000010C9F800004FF0806008BF4FF4801072
:1044C000C9F800004FF00070BE4208BF4FF4002052
:1044D000C9F800004FF0807008BF4FF48020C9F881
:1044E00000004FF48000BE4208BF4FF48030C9F88E
:1044F000000080E146F21000C4F20200864200F0A3
:10450000828046F22800C4F2020086427DD046F244
:104510004000C4F2020086420CBF4FF400104FF07E
:10452000006074E04FF4006000E02020A642CEF866
:10453000000413D046F22840C4F2020086420AD09A
:1045400046F24040C4F2020086420CBF4FF4801095
:104550004FF0806003E04FF4806000E01020A6423E
:10456000CEF8000413D046F22840C4F2020086427E
:104570000AD046F24040C4F2020086420CBF4FF41B
:1045800000204FF0007003E04FF4007000E00820BE
:10459000A642CEF8000413D046F22840C4F202002E
:1045A00086420AD046F24040C4F2020086420CBF66
:1045B0004FF480204FF0807003E04FF4807000E0F3
:1045C0000420A642CEF8000412D046F22840C4F2DD
:1045D000020086420AD046F24040C4F202008642FF
:1045E0000CBF4FF480304FF4800002E0402000E028
:1045F0000120CEF80004FEE0202001E04FF400602E
:10460000CEF8040005E0202001E04FF40060CEF871
:104610000000A64216D946F27000C4F2020086429B
:1046200027D046F28800C4F20200864223D046F228
:10463000A000C4F2020086420CBF4FF480104FF07D
:1046400080601AE046F21000C4F20200864217D0E1
:1046500046F22800C4F20200864213D046F240001F
:10466000C4F2020086420CBF4FF480104FF080600D
:104670000AE0102001E04FF48060CEF8040005E06D
:10468000102001E04FF48060CEF80000A64216D959
:1046900046F27000C4F20200864227D046F288003B
:1046A000C4F20200864223D046F2A000C4F2020007
:1046B00086420CBF4FF400204FF000701AE046F223
:1046C0001000C4F20200864217D046F22800C4F25D
:1046D0000200864213D046F24000C4F20200864235
:1046E0000CBF4FF400204FF000700AE0082001E0FA
:1046F0004FF40070CEF8040005E0082001E04FF40C
:104700000070CEF80000A64216D946F27000C4F23E
:104710000200864227D046F28800C4F20200864298
:1047200023D046F2A000C4F2020086420CBF4FF430
:1047300080204FF080701AE046F21000C4F20200B0
:10474000864217D046F22800C4F20200864213D0F7
:1047500046F24000C4F2020086420CBF4FF48020B3
:104760004FF080700AE0042001E04FF48070CEF832
:10477000040005E0042001E04FF48070CEF8000052
:10478000A64216D946F27000C4F20200864227D033
:1047900046F28800C4F20200864223D046F2A0000E
:1047A000C4F2020086420CBF4FF480304FF4800008
:1047B00019E046F21000C4F20200864216D046F21A
:1047C0002800C4F20200864212D046F24000C4F231
:1047D000020086420CBF4FF480304FF4800008E0A6
:1047E000012000E04020CEF8040004E0012000E0B9
:1047F0004020CEF80000CCF80C10C3F80C80CCF8A8
:1048000004205A60DCF8000040F00100CCF8000001
:10481000186840F00100186001B0BDE8F08F00009A
:10482000B0B540F2A473C2F200031B685D6845F0A6
:1048300002055D605D6845F001055D601D6845F03D
:1048400040051D6040F26453C2F200031B6800BFC4
:104850001D6825F001051D601D68ED07F8D146F2C1
:104860000C4CC4F2020C0CF14C0446F2080EA342AC
:10487000C4F2020E04D94FF40015CCF8005012E037
:104880000EF1B005AB4204D94FF40015CEF8005438
:1048900009E00EF15005AB424FF4001594BFCEF87D
:1048A0000050CEF8045043F20C05C4F201059D609F
:1048B000D9605A60196841F01001196040F2C45182
:1048C000C2F20001096800BF0B6823F001030B600E
:1048D0000B68DB07F8D1A14204D94FF00063CCF894
:1048E000003012E00EF1B003994204D94FF000639A
:1048F000CEF8003409E00EF1500399424FF0006306
:1049000094BFCEF80030CEF804308D60C8604A60A5
:10491000B0BD40F2A470C2F20000FDF790BC806B05
:104920000021C187C186FDF789BC000010B582B0A7
:1049300040F26C03C2F200031B6849F68174C1F2B5
:104940005E64A3FB043C04464FEA5C504FF47A7368
:10495000584301906068B0F5827F0DD113460A4636
:104960002046802100F02AF878B1606D40F02000E8
:10497000606503200AE000BF019830B1019801385A
:104980000190206880680006F6D4002002B010BDB7
:1049900080B582B08DF8071000218DF806104FF415
:1049A0007A7C0DF107010DF106020123CDF800C05C
:1049B000FDF7BCFD9DF8060002B080BD2DE9F04377
:1049C00081B01E4690460D468146FDF77AF8301AB2
:1049D00000EB0807FDF775F840F26C01C2F2000128
:1049E0000968C1F3CB3179430091D9F800108A6886
:1049F0002A40AA4216D1064608F1010474B1FDF717
:104A000060F8801BB8420FD2009800990028A1F1ED
:104A100001010091D9F8001008BF074688682840B6
:104A2000A842EBD0002028E0D9E900014268B1F5A6
:104A3000827F22F0E00242600BD1D9F80810B1F574
:104A4000004F02D0B1F5806F03D1016821F0400121
:104A50000160D9F82810B1F5005F07D1016821F491
:104A600000510160016841F400510160012089F8A2
:104A70005100002089F85000032001B0BDE8F08308
:104A8000074B19680868B0E8F04F80F30988BFF356
:104A90006F8F4FF0000080F31188704700BF00BF98
:104AA000B409002082B0002001AC019001F0F4FFB5
:104AB000019020460A2101F0E2FFF7E788B00020CC
:104AC000079000BFFBF76BFC18B1642001F0CFFF2B
:104AD000F8E740F2BC46C2F2000606F11400311DB0
:104AE00006F110020490CDE90221FBF76AFC9FED6C
:104AF0009B8A40F65C109FED960ADFED960A9FEDCB
:104B0000961AC2F20000F0EE481AFFF7D4F940F20C
:104B1000501AC2F2000A4FF07E50CAF8000000207E
:104B2000CAE90100CAF80C0040F27D0040F20851C9
:104B3000C2F20000C2F200010822FFF771FE40F647
:104B40005810C2F200000121017040F24410C2F27C
:104B50000000011D0830059040F2B540C2F200008F
:104B60000230019040F2AC4040F2601740F2105425
:104B700040F2BA4940F2B9459FED7B9A9FED7BAA7E
:104B800040F264189FED7ABA9FED76CA9FED74DA11
:104B9000C2F2000040F2441BC2F20007C2F200045D
:104BA000C2F20009C2F20005C2F200080230C2F2ED
:104BB000000B0691009000BF01F06EFF07900020EF
:104BC00001F09EFF02F04EFE3860207800070BD502
:104BD000207800F0F700207040F20850C2F2000088
:104BE00004990130FBF7B4FB99F8000040070BD59E
:104BF00099F8000006F1200200F0FB0089F800009F
:104C000000980399FBF76AFB287840075AD5287863
:104C100000F0FB002870DDE90101FBF7A7FC40F282
:104C20000050C2F20000007896ED040A012823D15A
:104C3000554640F65C1AC2F2000A30EE0C0A5046A5
:104C400001F064FC9AED0A0AB5EE400AF1EE10FAA2
:104C500007DA40F65C110020C2F20001B0EE480A0B
:104C60008862BDEEC00AAA4640F2B94510EE100AAD
:104C7000C2F2000520E000BFB4EE4D0AF1EE10FADA
:104C800018DD40F65912C2F2000210780130C1B2AC
:104C9000C92910700ED340F200510120C2F2000168
:104CA000087040F65C1044F20001C2F20000C4F249
:104CB0001C51016241F2873040F2FC71C2F20001E6
:104CC00009684863301DD0EC031A06F1140090EC1B
:104CD000030A40F69410C2F20000043090EC033A4C
:104CE0005046FEF76FFDDDE905325046594601F0AA
:104CF00027FD9BED000A9BED011A9BED022A21EE98
:104D0000091A20EE090A22EE092A81EE0A1A80EE1B
:104D10000A0A82EE0A2A96ED053A96ED074A96EDC2
:104D2000065A24EE0B4A25EE0B5A23EE0B3A07A83F
:104D3000012188ED015A88ED034A88ED053A88ED96
:104D4000001A88ED020A88ED042A01F098FE33E784
:104D500000A08C450000C844CDCC4C3E00000000B3
:104D600000003442000034C200003443DA0F4940EE
:104D70000000484280B54FF0500080F31188BFF327
:104D80006F8FBFF34F8F02F0E1FD30B14EF604504C
:104D9000CEF200004FF080510160002080F31188B6
:104DA00080BD0000B0B592B0002401A81421CDE967
:104DB0000A44CDE90844FBF74DFA43F6400000945D
:104DC000C4F202000168022541F0805101600068D0
:104DD00000F080500090009847F200000094C4F268
:104DE0000000016841F480410160006800F48040E7
:104DF00000900098012006904FF4803007904FF407
:104E000080000D9006200E90A820CDE90F0504200B
:104E1000119006A80C95FDF763F820B1EFF3108010
:104E200072B600BFFEE70F20CDE901054FF4A05098
:104E300004904FF48050059001A805210394FCF7DD
:104E40002FFF20B1EFF3108072B600BFFEE712B063
:104E5000B0BD4EF68850CEF20000016841F47001FA
:104E60000160704740F64400C2F20000FDF7E3BC69
:104E700010B540F6FF3E0368C4F2000E40F2004C4D
:104E80007045C4F2010C0DDCB0F1804F17D040F238
:104E90000042C4F20002904211D040F60002C4F277
:104EA00000020AE040F60042C4F20002904206D03E
:104EB000604504D00022C4F20102904203D14A6846
:104EC00023F07003134341F6FF72C4F200029042D4
:104ED0000DDC70451FDCB0F1804F3FD040F2004246
:104EE000C4F20002904239D040F6000221E043F6BD
:104EF000FF72C4F2010290421EDC42F20002C4F2D0
:104F0000000290422AD00022C4F20102904225D031
:104F1000604523D026E040F60042C4F200029042F1
:104F20001CD041F60002C4F20002904216D041F6B5
:104F30000042C4F200020FE044F20002C4F2010297
:104F400090420BD044F60002C4F20102904205D018
:104F500044F20042C4F20102904203D1CA6823F431
:104F60004073134323F080024B69D1F800E08C6852
:104F70001A430260C46240F48062C0F828E06245CF
:104F800004BF096901630121416110BDB0B5026A26
:104F900040F2004522F001020262026AD0F804E009
:104FA000D0F818C08C6822F0020240F48063C4F28A
:104FB0000105AB4242EA040205D1CC6822F00C02A2
:104FC00024F0040422430C68AB4207D1D1E9055315
:104FD0002EF4407E45EA0E0545EA030E2CF07303DD
:104FE0002343C0F804E08361496841630262B0BDB5
:104FF00070B5026A40F2004422F010020262026AB6
:10500000D0F804E0D0F818C08D6822F0200240F4F7
:105010008063C4F20104A34242EA051207D1CD68BD
:105020006FF0400622F0C00206EA05152A430D681B
:10503000A34207D1D1E905642EF4406343EA860315
:1050400043EA840E2CF4E64343EA0523C0F804E067
:10505000836149688163026270BD70B5026A40F283
:10506000004422F480720262026AD0F804E0D0F8B0
:105070001CC08D6822F4007240F48063C4F2010405
:10508000A34242EA052207D1CD6840F2FF462D0235
:1050900022F44062B5432A430D68A34207D1D1E907
:1050A00005642EF4405343EA061343EA041E2CF031
:1050B00073032B43C0F804E0C3614968C163026213
:1050C00070BD70B5026A40F2004622F4805202625E
:1050D000026A4368D0F81CE00C68D1F808C040F4BC
:1050E0008065C4F20106B54204D14D6923F48043C2
:1050F00043EA85132EF4E64646EA04264360C66179
:1051000022F40052496842EA0C320164026270BD26
:10511000806B0021C185C184FDF7EDBC10B5846BA7
:105120002068416994F83D20212A13D111F08001B3
:1051300010D00021E18400BF50E8030F216820F067
:10514000C00041E803020AB12068F5E7202084F896
:105150003D002068406994F83E10222907D110F0E4
:10516000400004D00020E085204600F051F8206C7B
:1051700040F0100120462164BDE81040FDF7BBBCA3
:105180000168806B0968C90530D40021C18500BF62
:10519000016851E8031F026821F4807142E803139B
:1051A000002BF5D1016851E8051F026821F00101CB
:1051B00042E80513002BF5D1016851E8051F02688C
:1051C00021F0400142E80513002BF5D1202180F8A1
:1051D0003E10016B012909D1016851E8031F0268E3
:1051E00021F0100142E80313002BF5D1016B0129D6
:1051F00018BFFDF762BF818DFDF77CBC806B016B32
:10520000012918BFFDF75ABF818D4908FDF772BC0F
:10521000016851E8031F026821F4907142E803130A
:10522000002BF5D1016851E8051F026821F001014A
:1052300042E80513002BF5D1016B01290AD100BF0B
:10524000016851E8031F026821F0100142E80313CE
:10525000002BF5D1202180F83E100021016370471A
:1052600081B090F83E10222920D18368B3F5805F89
:1052700008D10169002949D000F128010A680368B2
:105280005B680AE0014651F8282F13B90369002B27
:10529000F5D003685B6803F07F0313700A6801327E
:1052A0000A60C18D01390A04C18501D001B070477F
:1052B0000168CA6822F02002CA60CA6822F48072BB
:1052C000CA604A6922F001024A61202280F83E2029
:1052D000026B012A23D10022026300BF51E8031FA1
:1052E000026821F0100142E803130168002BF5D198
:1052F0000A68D20606D5002200920A680092496820
:1053000000910099818D01B0FDF7F4BB0168826ABC
:1053100049686FF35F2122F8021B8262C1E701B086
:10532000FDF7CBBE10B504460068D4E902C223697C
:10533000016921F4405111430161626943EA0C01A2
:10534000E3691143C268194349F20C639A4311435C
:10535000C1604169A26921F4407141F200431143E7
:1053600040F48062C4F201039A42416102D1FCF729
:1053700070FD01E0FCF75AFDE16963681922B1F59F
:10538000004FA0FB02011CD15A00DB0FFAF718FFF7
:1053900048F21F51C5F2EB11A0FB01235A096FF02F
:1053A000630302FB0300322303EBC000A0FB0101F7
:1053B0004FF4F87000EA111000EB0210C1F3421133
:1053C0001AE09A009B0FFAF7FBFE48F21F51C5F254
:1053D000EB11A0FB01235A096FF0630302FB0300EA
:1053E000322303EB0010A0FB0101F02000EA511072
:1053F00000EB0210C1F3431108442168886010BD1E
:1054000070B582B013460026044681628385066427
:10541000222084F83E000A462168A06B45F2811CD8
:1054200045F2FD1E45F21D15C0F6000CC0F6000E3B
:10543000C0F600050431C0E90FCEC0E91356FCF7F1
:105440009DF90196206801680191416801910199D7
:10545000216984F83C6049B150E8030F216840F4A9
:10546000807041E803020AB12068F5E7206850E83F
:10547000050F216840F0010041E80502002AF5D13E
:10548000206850E8050F216840F0400041E805021F
:10549000002AF5D1002002B070BD10B540F68C0492
:1054A000C2F20004204600F031FA2046BDE8104068
:1054B000FDF722BB10B540F6D004C2F2000420462E
:1054C00000F024FA2046BDE81040FDF715BB40F679
:1054D0001410C2F20000FDF70FBBB0B540F2A4708B
:1054E000C2F20000C16C46F20440C4F20200096836
:1054F00000F1540291421FD946F29F030268C4F2A0
:10550000020399424FF0200368DD46F23F45C4F2A2
:105510000205A94277DC46F2A005C4F20205A942C1
:1055200000F0808046F21045C4F20205A94200F066
:10553000B68046F22843ABE046F20002C4F2020213
:1055400002F1B803994221D946F29F03D2F8002410
:10555000C4F2020399424FF0200366DD46F23F4554
:10556000C4F20205A94200F3B88046F2A005C4F2D5
:105570000205A94200F0D08046F21045C4F20205AF
:10558000A94200F0398146F22843D3E002F1580ED7
:1055900046F29F047145C4F202048CBFD2F804C0E5
:1055A000D2F800C0A1424FF0200454DD46F23F453E
:1055B000C4F20205A94200F3A08046F2A005C4F29D
:1055C0000205A94200F0AB8046F21045C4F2020584
:1055D000A94200F0C58046F22844BAE046F23F05F1
:1055E000C4F20205A9424BDD46F24005C4F20205B1
:1055F000A94217D046F27005C4F20205A9424ED066
:1056000046F2880344E046F24045C4F20205A9424E
:1056100008D046F27045C4F20205A9423FD046F2D6
:10562000884335E04FF4001339E046F23F05C4F2F9
:105630000205A94276DD46F24005C4F20205A94200
:105640006AD046F27005C4F20205A94200F0D48087
:1056500046F288036EE046F23F05C4F20205A94215
:105660006FDD46F24005C4F20205A94257D046F26A
:105670007005C4F20205A94272D046F2880468E0BF
:1056800046F21005C4F20205A94208D046F22803EA
:10569000C4F20203994240F085804FF40063134244
:1056A00000F01E8146F27042C4F20202914208D01C
:1056B00046F28842C4F20202914204D14FF40062E1
:1056C00009E0202207E000F19C034FF000629942BC
:1056D00008BF4FF400128260ACE046F24045C4F2CD
:1056E0000205A94218D046F27045C4F20205A9424B
:1056F00000F0828046F288431CE046F24045C4F246
:105700000205A9420BD046F27045C4F20205A94237
:1057100026D046F288441CE04FF400136CE04FF4AE
:1057200000141DE046F21005C4F20205A94263D040
:1057300046F22803C4F20203994255D14FF40063A4
:105740005AE046F21005C4F20205A94208D046F21A
:105750002804C4F20204A14240F0C3804FF4006464
:1057600004EA0C05002D00F0BB80994246D8714533
:1057700021D946F27000C4F20200814200F0BA80E2
:1057800046F28800C4F20200814200F0B58046F281
:10579000A000C4F2020081420CBF4FF400104FF091
:1057A0000060ABE000F19C054FF00063A94208BF28
:1057B0004FF4001373E746F21000C4F20200814276
:1057C00000F09E8046F22800C4F20200814200F000
:1057D000998046F24000C4F2020081420CBF4FF4AF
:1057E00000104FF000608FE000F19C054FF0006367
:1057F000A94208BF4FF40013134271D046F2104281
:10580000C4F20202914213D046F22842C4F20202CC
:1058100091420AD046F24042C4F2020291420CBFC9
:105820004FF400114FF0006103E04FF4006100E01D
:105830002021416040F21055C2F200052878002472
:105840008007C4F202040DD52878012100F0FD0084
:1058500028702878012240F00400287004F5806048
:10586000FCF72AF940F2BA40C2F200000178890739
:105870000CD50178012201F0FD010170017841F0A1
:105880000401017020461021FCF716F940F2B940DE
:10589000C2F20000017889070CD50178012201F0DD
:1058A000FD010170017841F00401017020461021D2
:1058B000FCF702F900F0A2FF2878400758BFB0BDFE
:1058C000287800F0FB002870287840F00800287045
:1058D00043F61040C4F20100016841F0010101608B
:1058E000B0BD00F19C054FF00064A94208BF4FF421
:1058F000001435E7202001E04FF40060D06099E704
:10590000202001E04FF40060906093E72DE9F0471C
:1059100082B00446006844F60001C4F200018842E7
:105920006BD041F20001C4F20101884240F0ED80E9
:105930000968C90640F1E9800021019101680191DF
:10594000406801900198A06B0668306820F0010063
:10595000306040F23040C2F2000001780D293DD1A4
:1059600041780A293AD1817E0A2937D1C17E0D2991
:1059700034D140F24C45C2F20005811C2846182261
:10598000FAF74FFC95ED000A9FED611A9FED622A30
:1059900030EE010A9FED5F1AB4EE420A30EE011AB2
:1059A0009FED5F2AF1EE10FAC8BFB0EE410A9FEDFD
:1059B0005B1AB4EE420A30EE011AF1EE10FAB8BFEB
:1059C000B0EE410AD5E9030140F2AC22C2F2000276
:1059D00085ED000AC2E9000182ED020A306840F25A
:1059E000304140F00103C2F2000120461C22336026
:1059F00002B0BDE8F047FDF748BB0968C90640F1B1
:105A00008480002100910168009140680090009816
:105A1000A06B006801680268090322F001020260BD
:105A20004FF0240243684260026899B20DD442F4F8
:105A3000002202600268122942F00102026064D171
:105A400040F26030C2F200000DE022F40022026059
:105A50000268122942F00102026056D140F2603021
:105A6000C2F20000243001784278437862F30A21C0
:105A7000867890F80280C47890F804C090F804E02A
:105A800090F80590027C90F811A04779DD0840F667
:105A90005023C7F30117C2F200039F72477966F3E0
:105AA0004A15BE09DE728679C779A40046EA072640
:105AB0009E81067A477A44EA981446EA0726DE81F0
:105AC000867AC77A6CF38A2446EA07271F82077B07
:105AD0004FEA5E069F74477B69F3CA16DF74877BC3
